{
  "contractName": "Voting",
  "abi": [
    {
      "inputs": [],
      "payable": false,
      "stateMutability": "nonpayable",
      "type": "constructor"
    },
    {
      "constant": true,
      "inputs": [],
      "name": "Creator",
      "outputs": [
        {
          "internalType": "address",
          "name": "",
          "type": "address"
        }
      ],
      "payable": false,
      "stateMutability": "view",
      "type": "function"
    },
    {
      "constant": true,
      "inputs": [
        {
          "internalType": "uint256",
          "name": "",
          "type": "uint256"
        }
      ],
      "name": "candidates",
      "outputs": [
        {
          "internalType": "uint256",
          "name": "id",
          "type": "uint256"
        },
        {
          "internalType": "string",
          "name": "name",
          "type": "string"
        }
      ],
      "payable": false,
      "stateMutability": "view",
      "type": "function"
    },
    {
      "constant": true,
      "inputs": [],
      "name": "candidatesCount",
      "outputs": [
        {
          "internalType": "uint256",
          "name": "",
          "type": "uint256"
        }
      ],
      "payable": false,
      "stateMutability": "view",
      "type": "function"
    },
    {
      "constant": true,
      "inputs": [
        {
          "internalType": "address",
          "name": "",
          "type": "address"
        }
      ],
      "name": "hasVoted",
      "outputs": [
        {
          "internalType": "bool",
          "name": "",
          "type": "bool"
        }
      ],
      "payable": false,
      "stateMutability": "view",
      "type": "function"
    },
    {
      "constant": true,
      "inputs": [],
      "name": "totalVotes",
      "outputs": [
        {
          "internalType": "uint256",
          "name": "",
          "type": "uint256"
        }
      ],
      "payable": false,
      "stateMutability": "view",
      "type": "function"
    },
    {
      "constant": true,
      "inputs": [],
      "name": "votingEnded",
      "outputs": [
        {
          "internalType": "bool",
          "name": "",
          "type": "bool"
        }
      ],
      "payable": false,
      "stateMutability": "view",
      "type": "function"
    },
    {
      "constant": false,
      "inputs": [
        {
          "internalType": "uint256",
          "name": "_candidate",
          "type": "uint256"
        }
      ],
      "name": "voteForCandidate",
      "outputs": [],
      "payable": false,
      "stateMutability": "nonpayable",
      "type": "function"
    },
    {
      "constant": false,
      "inputs": [],
      "name": "endVoting",
      "outputs": [
        {
          "internalType": "bool",
          "name": "",
          "type": "bool"
        }
      ],
      "payable": false,
      "stateMutability": "nonpayable",
      "type": "function"
    },
    {
      "constant": true,
      "inputs": [
        {
          "internalType": "uint256",
          "name": "_candidate",
          "type": "uint256"
        }
      ],
      "name": "totalVotesFor",
      "outputs": [
        {
          "internalType": "uint256",
          "name": "",
          "type": "uint256"
        }
      ],
      "payable": false,
      "stateMutability": "view",
      "type": "function"
    }
  ],
  "bytecode": "0x608060405234801561001057600080fd5b50336000806101000a81548173ffffffffffffffffffffffffffffffffffffffff021916908373ffffffffffffffffffffffffffffffffffffffff160217905550600560008154809291906001019190505550604051806040016040528060055481526020016040518060400160405280600d81526020017f4e6172656e647261204d6f6469000000000000000000000000000000000000008152508152506003600060055481526020019081526020016000206000820151816000015560208201518160010190805190602001906100ea929190610190565b50905050600560008154809291906001019190505550604051806040016040528060055481526020016040518060400160405280600c81526020017f526168756c2047616e6468690000000000000000000000000000000000000000815250815250600360006005548152602001908152602001600020600082015181600001556020820151816001019080519060200190610187929190610190565b50905050610235565b828054600181600116156101000203166002900490600052602060002090601f016020900481019282601f106101d157805160ff19168380011785556101ff565b828001600101855582156101ff579182015b828111156101fe5782518255916020019190600101906101e3565b5b50905061020c9190610210565b5090565b61023291905b8082111561022e576000816000905550600101610216565b5090565b90565b610616806102446000396000f3fe608060405234801561001057600080fd5b50600436106100935760003560e01c80633477ee2e116100665780633477ee2e1461017a57806336c8c5ee146102285780639d5a052914610256578063a805f1ca14610278578063c3403ddf146102ba57610093565b806309eef43e146100985780630d15fd77146100f457806318bee97e146101125780632d35a8a21461015c575b600080fd5b6100da600480360360208110156100ae57600080fd5b81019080803573ffffffffffffffffffffffffffffffffffffffff1690602001909291905050506102dc565b604051808215151515815260200191505060405180910390f35b6100fc6102fc565b6040518082815260200191505060405180910390f35b61011a610302565b604051808273ffffffffffffffffffffffffffffffffffffffff1673ffffffffffffffffffffffffffffffffffffffff16815260200191505060405180910390f35b610164610327565b6040518082815260200191505060405180910390f35b6101a66004803603602081101561019057600080fd5b810190808035906020019092919050505061032d565b6040518083815260200180602001828103825283818151815260200191508051906020019080838360005b838110156101ec5780820151818401526020810190506101d1565b50505050905090810190601f1680156102195780820380516001836020036101000a031916815260200191505b50935050505060405180910390f35b6102546004803603602081101561023e57600080fd5b81019080803590602001909291905050506103e9565b005b61025e610502565b604051808215151515815260200191505060405180910390f35b6102a46004803603602081101561028e57600080fd5b8101908080359060200190929190505050610515565b6040518082815260200191505060405180910390f35b6102c261054a565b604051808215151515815260200191505060405180910390f35b60016020528060005260406000206000915054906101000a900460ff1681565b60025481565b6000809054906101000a900473ffffffffffffffffffffffffffffffffffffffff1681565b60055481565b6003602052806000526040600020600091509050806000015490806001018054600181600116156101000203166002900480601f0160208091040260200160405190810160405280929190818152602001828054600181600116156101000203166002900480156103df5780601f106103b4576101008083540402835291602001916103df565b820191906000526020600020905b8154815290600101906020018083116103c257829003601f168201915b5050505050905082565b600060149054906101000a900460ff161561040357600080fd5b60008111801561041557506005548111155b61041e57600080fd5b600160003373ffffffffffffffffffffffffffffffffffffffff1673ffffffffffffffffffffffffffffffffffffffff16815260200190815260200160002060009054906101000a900460ff161561047557600080fd5b6001600460008381526020019081526020016000206000828254019250508190555060018060003373ffffffffffffffffffffffffffffffffffffffff1673ffffffffffffffffffffffffffffffffffffffff16815260200190815260200160002060006101000a81548160ff021916908315150217905550600160026000828254019250508190555050565b600060149054906101000a900460ff1681565b60008060149054906101000a900460ff1661052f57600080fd5b60046000838152602001908152602001600020549050919050565b60008060009054906101000a900473ffffffffffffffffffffffffffffffffffffffff1673ffffffffffffffffffffffffffffffffffffffff163373ffffffffffffffffffffffffffffffffffffffff16146105a557600080fd5b600060149054906101000a900460ff16156105bf57600080fd5b6001600060146101000a81548160ff021916908315150217905550600190509056fea265627a7a72315820d817f11ba17bcc5848f44450d2df0018a9b8ccf3c9eaa213e436128d0bd2b31e64736f6c63430005100032",
  "source": "pragma solidity ^0.5.16;\r\n\r\ncontract Voting{\r\n\r\n    struct Candidate {\r\n        uint id;\r\n        string name;\r\n    }\r\n\r\n     address public Creator;\r\n\r\n     bool public votingEnded;\r\n\r\n     mapping (address => bool) public hasVoted;\r\n\r\n     uint256 public totalVotes;\r\n\r\n     mapping(uint => Candidate) public candidates;\r\n\r\n     // Tallies for each candidate\r\n    mapping (uint256 => uint256) private votesReceived;\r\n\r\n     uint public candidatesCount;\r\n\r\n     constructor() public {\r\n        Creator = msg.sender;\r\n\r\n        candidatesCount ++;\r\n        candidates[candidatesCount] = Candidate(candidatesCount, \"Narendra Modi\");\r\n\r\n        candidatesCount ++;\r\n        candidates[candidatesCount] = Candidate(candidatesCount, \"Rahul Gandhi\");\r\n    }\r\n\r\n    function voteForCandidate(uint _candidate) public {\r\n        // can only vote during voting period\r\n        require(!votingEnded);\r\n        // candidate must be part of the ballot\r\n        require(_candidate > 0 && _candidate <= candidatesCount);\r\n        // one vote per address (not sybil resistant)\r\n        require(!hasVoted[msg.sender]);\r\n\r\n        votesReceived[_candidate] += 1;\r\n        hasVoted[msg.sender] = true;\r\n        totalVotes += 1;\r\n    }\r\n\r\n    function endVoting() public returns (bool) {\r\n        require(msg.sender == Creator);  // Only creator can end the vote.\r\n        require(!votingEnded);\r\n        votingEnded = true;\r\n        return true;\r\n    }\r\n\r\n    function totalVotesFor(uint _candidate) view public returns (uint256) {\r\n        require(votingEnded);  // Don't reveal votes until voting has ended\r\n        return votesReceived[_candidate];\r\n    }\r\n}\r\n",
  "sourcePath": "F:/blockchain/election block/react box/contracts/Voting.sol",
  "compiler": {
    "name": "solc",
    "version": "0.5.16+commit.9c3226ce.Emscripten.clang"
  },
  "schemaVersion": "3.2.3",
  "updatedAt": "2020-08-31T16:56:47.400Z",
  "networkType": "ethereum",
  "devdoc": {
    "methods": {}
  },
  "userdoc": {
    "methods": {}
  }
}